{
  "_format": "hh-sol-artifact-1",
  "contractName": "Lottery",
  "sourceName": "contracts/Lottery.sol",
  "abi": [
    {
      "inputs": [],
      "stateMutability": "nonpayable",
      "type": "constructor"
    },
    {
      "anonymous": false,
      "inputs": [
        {
          "indexed": true,
          "internalType": "address",
          "name": "player",
          "type": "address"
        },
        {
          "indexed": false,
          "internalType": "uint256",
          "name": "amount",
          "type": "uint256"
        }
      ],
      "name": "EnteredLottery",
      "type": "event"
    },
    {
      "inputs": [
        {
          "internalType": "uint256",
          "name": "",
          "type": "uint256"
        }
      ],
      "name": "amounts",
      "outputs": [
        {
          "internalType": "uint256",
          "name": "",
          "type": "uint256"
        }
      ],
      "stateMutability": "view",
      "type": "function"
    },
    {
      "inputs": [],
      "name": "checkTime",
      "outputs": [
        {
          "internalType": "uint256",
          "name": "",
          "type": "uint256"
        }
      ],
      "stateMutability": "view",
      "type": "function"
    },
    {
      "inputs": [],
      "name": "enter",
      "outputs": [],
      "stateMutability": "payable",
      "type": "function"
    },
    {
      "inputs": [],
      "name": "getAmounts",
      "outputs": [
        {
          "internalType": "uint256[]",
          "name": "",
          "type": "uint256[]"
        }
      ],
      "stateMutability": "view",
      "type": "function"
    },
    {
      "inputs": [],
      "name": "getBalance",
      "outputs": [
        {
          "internalType": "uint256",
          "name": "",
          "type": "uint256"
        }
      ],
      "stateMutability": "view",
      "type": "function"
    },
    {
      "inputs": [],
      "name": "getLotteryId",
      "outputs": [
        {
          "internalType": "uint256",
          "name": "",
          "type": "uint256"
        }
      ],
      "stateMutability": "view",
      "type": "function"
    },
    {
      "inputs": [],
      "name": "getPlayers",
      "outputs": [
        {
          "internalType": "address payable[]",
          "name": "",
          "type": "address[]"
        }
      ],
      "stateMutability": "view",
      "type": "function"
    },
    {
      "inputs": [],
      "name": "getRandomNumber",
      "outputs": [
        {
          "internalType": "uint256",
          "name": "",
          "type": "uint256"
        }
      ],
      "stateMutability": "view",
      "type": "function"
    },
    {
      "inputs": [],
      "name": "getWinners",
      "outputs": [
        {
          "internalType": "address[]",
          "name": "",
          "type": "address[]"
        }
      ],
      "stateMutability": "view",
      "type": "function"
    },
    {
      "inputs": [],
      "name": "lotteryId",
      "outputs": [
        {
          "internalType": "uint256",
          "name": "",
          "type": "uint256"
        }
      ],
      "stateMutability": "view",
      "type": "function"
    },
    {
      "inputs": [],
      "name": "lotteryStart",
      "outputs": [
        {
          "internalType": "uint256",
          "name": "",
          "type": "uint256"
        }
      ],
      "stateMutability": "view",
      "type": "function"
    },
    {
      "inputs": [],
      "name": "owner",
      "outputs": [
        {
          "internalType": "address",
          "name": "",
          "type": "address"
        }
      ],
      "stateMutability": "view",
      "type": "function"
    },
    {
      "inputs": [],
      "name": "ownerFeeAddress",
      "outputs": [
        {
          "internalType": "address",
          "name": "",
          "type": "address"
        }
      ],
      "stateMutability": "view",
      "type": "function"
    },
    {
      "inputs": [
        {
          "internalType": "uint256",
          "name": "",
          "type": "uint256"
        }
      ],
      "name": "players",
      "outputs": [
        {
          "internalType": "address payable",
          "name": "",
          "type": "address"
        }
      ],
      "stateMutability": "view",
      "type": "function"
    },
    {
      "inputs": [
        {
          "internalType": "uint256",
          "name": "",
          "type": "uint256"
        }
      ],
      "name": "winners",
      "outputs": [
        {
          "internalType": "address",
          "name": "",
          "type": "address"
        }
      ],
      "stateMutability": "view",
      "type": "function"
    }
  ],
  "bytecode": "0x608060405234801561000f575f80fd5b50335f806101000a81548173ffffffffffffffffffffffffffffffffffffffff021916908373ffffffffffffffffffffffffffffffffffffffff1602179055507364b9a8f7cc61dd98fa9a147e6034b3c855c11ce460015f6101000a81548173ffffffffffffffffffffffffffffffffffffffff021916908373ffffffffffffffffffffffffffffffffffffffff1602179055505f60058190555042600681905550611116806100be5f395ff3fe6080604052600436106100e7575f3560e01c8063a2fb117511610089578063e0c6190d11610058578063e0c6190d146102dd578063e580f47b14610307578063e97dcb6214610331578063f71d96cb1461033b576100e7565b8063a2fb117514610223578063cd8cc8441461025f578063dbdff2c114610289578063df15c37e146102b3576100e7565b806345f0a44f116100c557806345f0a44f146101695780638b5b9ccc146101a55780638da5cb5b146101cf578063900aafaf146101f9576100e7565b806312065fe0146100eb57806313fcf041146101155780633d370b4e1461013f575b5f80fd5b3480156100f6575f80fd5b506100ff610377565b60405161010c9190610a20565b60405180910390f35b348015610120575f80fd5b5061012961037e565b6040516101369190610a78565b60405180910390f35b34801561014a575f80fd5b506101536103a3565b6040516101609190610b48565b60405180910390f35b348015610174575f80fd5b5061018f600480360381019061018a9190610b96565b6103f9565b60405161019c9190610a20565b60405180910390f35b3480156101b0575f80fd5b506101b9610419565b6040516101c69190610c89565b60405180910390f35b3480156101da575f80fd5b506101e36104a4565b6040516101f09190610a78565b60405180910390f35b348015610204575f80fd5b5061020d6104c7565b60405161021a9190610a20565b60405180910390f35b34801561022e575f80fd5b5061024960048036038101906102449190610b96565b6104d0565b6040516102569190610a78565b60405180910390f35b34801561026a575f80fd5b5061027361050b565b6040516102809190610a20565b60405180910390f35b348015610294575f80fd5b5061029d610511565b6040516102aa9190610a20565b60405180910390f35b3480156102be575f80fd5b506102c7610562565b6040516102d49190610d60565b60405180910390f35b3480156102e8575f80fd5b506102f16105ed565b6040516102fe9190610a20565b60405180910390f35b348015610312575f80fd5b5061031b6105f6565b6040516103289190610a20565b60405180910390f35b6103396105fc565b005b348015610346575f80fd5b50610361600480360381019061035c9190610b96565b61073c565b60405161036e9190610d8f565b60405180910390f35b5f47905090565b60015f9054906101000a900473ffffffffffffffffffffffffffffffffffffffff1681565b606060048054806020026020016040519081016040528092919081815260200182805480156103ef57602002820191905f5260205f20905b8154815260200190600101908083116103db575b5050505050905090565b60048181548110610408575f80fd5b905f5260205f20015f915090505481565b6060600280548060200260200160405190810160405280929190818152602001828054801561049a57602002820191905f5260205f20905b815f9054906101000a900473ffffffffffffffffffffffffffffffffffffffff1673ffffffffffffffffffffffffffffffffffffffff1681526020019060010190808311610451575b5050505050905090565b5f8054906101000a900473ffffffffffffffffffffffffffffffffffffffff1681565b5f600554905090565b600381815481106104df575f80fd5b905f5260205f20015f915054906101000a900473ffffffffffffffffffffffffffffffffffffffff1681565b60065481565b5f805f9054906101000a900473ffffffffffffffffffffffffffffffffffffffff1642604051602001610545929190610e0d565b604051602081830303815290604052805190602001205f1c905090565b606060038054806020026020016040519081016040528092919081815260200182805480156105e357602002820191905f5260205f20905b815f9054906101000a900473ffffffffffffffffffffffffffffffffffffffff1673ffffffffffffffffffffffffffffffffffffffff168152602001906001019080831161059a575b5050505050905090565b5f600654905090565b60055481565b66038d7ea4c68000341015610646576040517f08c379a000000000000000000000000000000000000000000000000000000000815260040161063d90610eb8565b60405180910390fd5b600233908060018154018082558091505060019003905f5260205f20015f9091909190916101000a81548173ffffffffffffffffffffffffffffffffffffffff021916908373ffffffffffffffffffffffffffffffffffffffff160217905550600434908060018154018082558091505060019003905f5260205f20015f90919091909150553373ffffffffffffffffffffffffffffffffffffffff167fc3d9208034e72b3cd2d1b5f1e9911ebc02e7be185fca8924062b57bd5464afd4346040516107129190610a20565b60405180910390a262278d0060065461072b9190610f03565b421061073a57610739610777565b5b565b6002818154811061074b575f80fd5b905f5260205f20015f915054906101000a900473ffffffffffffffffffffffffffffffffffffffff1681565b5f600280549050116107be576040517f08c379a00000000000000000000000000000000000000000000000000000000081526004016107b590610f80565b60405180910390fd5b5f6002805490506107cd610511565b6107d79190610fcb565b90505f6103e86019476107ea9190610ffb565b6107f4919061103c565b905060015f9054906101000a900473ffffffffffffffffffffffffffffffffffffffff1673ffffffffffffffffffffffffffffffffffffffff166108fc8290811502906040515f60405180830381858888f1935050505015801561085a573d5f803e3d5ffd5b506002828154811061086f5761086e61106c565b5b905f5260205f20015f9054906101000a900473ffffffffffffffffffffffffffffffffffffffff1673ffffffffffffffffffffffffffffffffffffffff166108fc4790811502906040515f60405180830381858888f193505050501580156108d9573d5f803e3d5ffd5b506003600283815481106108f0576108ef61106c565b5b905f5260205f20015f9054906101000a900473ffffffffffffffffffffffffffffffffffffffff16908060018154018082558091505060019003905f5260205f20015f9091909190916101000a81548173ffffffffffffffffffffffffffffffffffffffff021916908373ffffffffffffffffffffffffffffffffffffffff16021790555060055f81548092919061098790611099565b91905055504260068190555060025f6109a091906109b1565b60045f6109ad91906109cf565b5050565b5080545f8255905f5260205f20908101906109cc91906109ed565b50565b5080545f8255905f5260205f20908101906109ea91906109ed565b50565b5b80821115610a04575f815f9055506001016109ee565b5090565b5f819050919050565b610a1a81610a08565b82525050565b5f602082019050610a335f830184610a11565b92915050565b5f73ffffffffffffffffffffffffffffffffffffffff82169050919050565b5f610a6282610a39565b9050919050565b610a7281610a58565b82525050565b5f602082019050610a8b5f830184610a69565b92915050565b5f81519050919050565b5f82825260208201905092915050565b5f819050602082019050919050565b610ac381610a08565b82525050565b5f610ad48383610aba565b60208301905092915050565b5f602082019050919050565b5f610af682610a91565b610b008185610a9b565b9350610b0b83610aab565b805f5b83811015610b3b578151610b228882610ac9565b9750610b2d83610ae0565b925050600181019050610b0e565b5085935050505092915050565b5f6020820190508181035f830152610b608184610aec565b905092915050565b5f80fd5b610b7581610a08565b8114610b7f575f80fd5b50565b5f81359050610b9081610b6c565b92915050565b5f60208284031215610bab57610baa610b68565b5b5f610bb884828501610b82565b91505092915050565b5f81519050919050565b5f82825260208201905092915050565b5f819050602082019050919050565b5f610bf482610a39565b9050919050565b610c0481610bea565b82525050565b5f610c158383610bfb565b60208301905092915050565b5f602082019050919050565b5f610c3782610bc1565b610c418185610bcb565b9350610c4c83610bdb565b805f5b83811015610c7c578151610c638882610c0a565b9750610c6e83610c21565b925050600181019050610c4f565b5085935050505092915050565b5f6020820190508181035f830152610ca18184610c2d565b905092915050565b5f81519050919050565b5f82825260208201905092915050565b5f819050602082019050919050565b610cdb81610a58565b82525050565b5f610cec8383610cd2565b60208301905092915050565b5f602082019050919050565b5f610d0e82610ca9565b610d188185610cb3565b9350610d2383610cc3565b805f5b83811015610d53578151610d3a8882610ce1565b9750610d4583610cf8565b925050600181019050610d26565b5085935050505092915050565b5f6020820190508181035f830152610d788184610d04565b905092915050565b610d8981610bea565b82525050565b5f602082019050610da25f830184610d80565b92915050565b5f8160601b9050919050565b5f610dbe82610da8565b9050919050565b5f610dcf82610db4565b9050919050565b610de7610de282610a58565b610dc5565b82525050565b5f819050919050565b610e07610e0282610a08565b610ded565b82525050565b5f610e188285610dd6565b601482019150610e288284610df6565b6020820191508190509392505050565b5f82825260208201905092915050565b7f4174206c6561737420302e3030312065746820746f20656e746572206c6f74745f8201527f6572790000000000000000000000000000000000000000000000000000000000602082015250565b5f610ea2602383610e38565b9150610ead82610e48565b604082019050919050565b5f6020820190508181035f830152610ecf81610e96565b9050919050565b7f4e487b71000000000000000000000000000000000000000000000000000000005f52601160045260245ffd5b5f610f0d82610a08565b9150610f1883610a08565b9250828201905080821115610f3057610f2f610ed6565b5b92915050565b7f4e6f20706c617965727320696e20746865206c6f7474657279000000000000005f82015250565b5f610f6a601983610e38565b9150610f7582610f36565b602082019050919050565b5f6020820190508181035f830152610f9781610f5e565b9050919050565b7f4e487b71000000000000000000000000000000000000000000000000000000005f52601260045260245ffd5b5f610fd582610a08565b9150610fe083610a08565b925082610ff057610fef610f9e565b5b828206905092915050565b5f61100582610a08565b915061101083610a08565b925082820261101e81610a08565b9150828204841483151761103557611034610ed6565b5b5092915050565b5f61104682610a08565b915061105183610a08565b92508261106157611060610f9e565b5b828204905092915050565b7f4e487b71000000000000000000000000000000000000000000000000000000005f52603260045260245ffd5b5f6110a382610a08565b91507fffffffffffffffffffffffffffffffffffffffffffffffffffffffffffffffff82036110d5576110d4610ed6565b5b60018201905091905056fea2646970667358221220237b9c34677b2f114e4b875e9ad0547df1ca48fc40c12ab11fbdd58f52f0472064736f6c63430008140033",
  "linkReferences": {},
  "deployedLinkReferences": {}
}