{
  "_format": "hh-sol-artifact-1",
  "contractName": "Lottery",
  "sourceName": "contracts/Lottery.sol",
  "abi": [
    {
      "inputs": [],
      "stateMutability": "nonpayable",
      "type": "constructor"
    },
    {
      "inputs": [],
      "name": "checkTime",
      "outputs": [
        {
          "internalType": "uint256",
          "name": "",
          "type": "uint256"
        }
      ],
      "stateMutability": "view",
      "type": "function"
    },
    {
      "inputs": [],
      "name": "enter",
      "outputs": [],
      "stateMutability": "payable",
      "type": "function"
    },
    {
      "inputs": [],
      "name": "getBalance",
      "outputs": [
        {
          "internalType": "uint256",
          "name": "",
          "type": "uint256"
        }
      ],
      "stateMutability": "view",
      "type": "function"
    },
    {
      "inputs": [],
      "name": "getLotteryId",
      "outputs": [
        {
          "internalType": "uint256",
          "name": "",
          "type": "uint256"
        }
      ],
      "stateMutability": "view",
      "type": "function"
    },
    {
      "inputs": [],
      "name": "getPlayers",
      "outputs": [
        {
          "internalType": "address payable[]",
          "name": "",
          "type": "address[]"
        }
      ],
      "stateMutability": "view",
      "type": "function"
    },
    {
      "inputs": [],
      "name": "getRandomNumber",
      "outputs": [
        {
          "internalType": "uint256",
          "name": "",
          "type": "uint256"
        }
      ],
      "stateMutability": "view",
      "type": "function"
    },
    {
      "inputs": [],
      "name": "getWinners",
      "outputs": [
        {
          "internalType": "address[]",
          "name": "",
          "type": "address[]"
        }
      ],
      "stateMutability": "view",
      "type": "function"
    },
    {
      "inputs": [],
      "name": "lotteryId",
      "outputs": [
        {
          "internalType": "uint256",
          "name": "",
          "type": "uint256"
        }
      ],
      "stateMutability": "view",
      "type": "function"
    },
    {
      "inputs": [],
      "name": "lotteryStart",
      "outputs": [
        {
          "internalType": "uint256",
          "name": "",
          "type": "uint256"
        }
      ],
      "stateMutability": "view",
      "type": "function"
    },
    {
      "inputs": [],
      "name": "owner",
      "outputs": [
        {
          "internalType": "address",
          "name": "",
          "type": "address"
        }
      ],
      "stateMutability": "view",
      "type": "function"
    },
    {
      "inputs": [],
      "name": "ownerFeeAddress",
      "outputs": [
        {
          "internalType": "address",
          "name": "",
          "type": "address"
        }
      ],
      "stateMutability": "view",
      "type": "function"
    },
    {
      "inputs": [
        {
          "internalType": "uint256",
          "name": "",
          "type": "uint256"
        }
      ],
      "name": "players",
      "outputs": [
        {
          "internalType": "address payable",
          "name": "",
          "type": "address"
        }
      ],
      "stateMutability": "view",
      "type": "function"
    },
    {
      "inputs": [
        {
          "internalType": "uint256",
          "name": "",
          "type": "uint256"
        }
      ],
      "name": "winners",
      "outputs": [
        {
          "internalType": "address",
          "name": "",
          "type": "address"
        }
      ],
      "stateMutability": "view",
      "type": "function"
    }
  ],
  "bytecode": "0x608060405234801561000f575f80fd5b50335f806101000a81548173ffffffffffffffffffffffffffffffffffffffff021916908373ffffffffffffffffffffffffffffffffffffffff1602179055507364b9a8f7cc61dd98fa9a147e6034b3c855c11ce460015f6101000a81548173ffffffffffffffffffffffffffffffffffffffff021916908373ffffffffffffffffffffffffffffffffffffffff1602179055505f60048190555042600581905550610e9e806100be5f395ff3fe6080604052600436106100c1575f3560e01c8063cd8cc8441161007e578063e0c6190d11610058578063e0c6190d14610251578063e580f47b1461027b578063e97dcb62146102a5578063f71d96cb146102af576100c1565b8063cd8cc844146101d3578063dbdff2c1146101fd578063df15c37e14610227576100c1565b806312065fe0146100c557806313fcf041146100ef5780638b5b9ccc146101195780638da5cb5b14610143578063900aafaf1461016d578063a2fb117514610197575b5f80fd5b3480156100d0575f80fd5b506100d96102eb565b6040516100e6919061087f565b60405180910390f35b3480156100fa575f80fd5b506101036102f2565b60405161011091906108d7565b60405180910390f35b348015610124575f80fd5b5061012d610317565b60405161013a91906109b8565b60405180910390f35b34801561014e575f80fd5b506101576103a2565b60405161016491906108d7565b60405180910390f35b348015610178575f80fd5b506101816103c5565b60405161018e919061087f565b60405180910390f35b3480156101a2575f80fd5b506101bd60048036038101906101b89190610a06565b6103ce565b6040516101ca91906108d7565b60405180910390f35b3480156101de575f80fd5b506101e7610409565b6040516101f4919061087f565b60405180910390f35b348015610208575f80fd5b5061021161040f565b60405161021e919061087f565b60405180910390f35b348015610232575f80fd5b5061023b610460565b6040516102489190610ae8565b60405180910390f35b34801561025c575f80fd5b506102656104eb565b604051610272919061087f565b60405180910390f35b348015610286575f80fd5b5061028f6104f4565b60405161029c919061087f565b60405180910390f35b6102ad6104fa565b005b3480156102ba575f80fd5b506102d560048036038101906102d09190610a06565b6105c6565b6040516102e29190610b17565b60405180910390f35b5f47905090565b60015f9054906101000a900473ffffffffffffffffffffffffffffffffffffffff1681565b6060600280548060200260200160405190810160405280929190818152602001828054801561039857602002820191905f5260205f20905b815f9054906101000a900473ffffffffffffffffffffffffffffffffffffffff1673ffffffffffffffffffffffffffffffffffffffff168152602001906001019080831161034f575b5050505050905090565b5f8054906101000a900473ffffffffffffffffffffffffffffffffffffffff1681565b5f600454905090565b600381815481106103dd575f80fd5b905f5260205f20015f915054906101000a900473ffffffffffffffffffffffffffffffffffffffff1681565b60055481565b5f805f9054906101000a900473ffffffffffffffffffffffffffffffffffffffff1642604051602001610443929190610b95565b604051602081830303815290604052805190602001205f1c905090565b606060038054806020026020016040519081016040528092919081815260200182805480156104e157602002820191905f5260205f20905b815f9054906101000a900473ffffffffffffffffffffffffffffffffffffffff1673ffffffffffffffffffffffffffffffffffffffff1681526020019060010190808311610498575b5050505050905090565b5f600554905090565b60045481565b66038d7ea4c68000341015610544576040517f08c379a000000000000000000000000000000000000000000000000000000000815260040161053b90610c40565b60405180910390fd5b600233908060018154018082558091505060019003905f5260205f20015f9091909190916101000a81548173ffffffffffffffffffffffffffffffffffffffff021916908373ffffffffffffffffffffffffffffffffffffffff16021790555062278d006005546105b59190610c8b565b42106105c4576105c3610601565b5b565b600281815481106105d5575f80fd5b905f5260205f20015f915054906101000a900473ffffffffffffffffffffffffffffffffffffffff1681565b5f60028054905011610648576040517f08c379a000000000000000000000000000000000000000000000000000000000815260040161063f90610d08565b60405180910390fd5b5f60028054905061065761040f565b6106619190610d53565b90505f6103e86019476106749190610d83565b61067e9190610dc4565b905060015f9054906101000a900473ffffffffffffffffffffffffffffffffffffffff1673ffffffffffffffffffffffffffffffffffffffff166108fc8290811502906040515f60405180830381858888f193505050501580156106e4573d5f803e3d5ffd5b50600282815481106106f9576106f8610df4565b5b905f5260205f20015f9054906101000a900473ffffffffffffffffffffffffffffffffffffffff1673ffffffffffffffffffffffffffffffffffffffff166108fc4790811502906040515f60405180830381858888f19350505050158015610763573d5f803e3d5ffd5b5060036002838154811061077a57610779610df4565b5b905f5260205f20015f9054906101000a900473ffffffffffffffffffffffffffffffffffffffff16908060018154018082558091505060019003905f5260205f20015f9091909190916101000a81548173ffffffffffffffffffffffffffffffffffffffff021916908373ffffffffffffffffffffffffffffffffffffffff16021790555060045f81548092919061081190610e21565b91905055504260058190555060025f61082a919061082e565b5050565b5080545f8255905f5260205f2090810190610849919061084c565b50565b5b80821115610863575f815f90555060010161084d565b5090565b5f819050919050565b61087981610867565b82525050565b5f6020820190506108925f830184610870565b92915050565b5f73ffffffffffffffffffffffffffffffffffffffff82169050919050565b5f6108c182610898565b9050919050565b6108d1816108b7565b82525050565b5f6020820190506108ea5f8301846108c8565b92915050565b5f81519050919050565b5f82825260208201905092915050565b5f819050602082019050919050565b5f61092382610898565b9050919050565b61093381610919565b82525050565b5f610944838361092a565b60208301905092915050565b5f602082019050919050565b5f610966826108f0565b61097081856108fa565b935061097b8361090a565b805f5b838110156109ab5781516109928882610939565b975061099d83610950565b92505060018101905061097e565b5085935050505092915050565b5f6020820190508181035f8301526109d0818461095c565b905092915050565b5f80fd5b6109e581610867565b81146109ef575f80fd5b50565b5f81359050610a00816109dc565b92915050565b5f60208284031215610a1b57610a1a6109d8565b5b5f610a28848285016109f2565b91505092915050565b5f81519050919050565b5f82825260208201905092915050565b5f819050602082019050919050565b610a63816108b7565b82525050565b5f610a748383610a5a565b60208301905092915050565b5f602082019050919050565b5f610a9682610a31565b610aa08185610a3b565b9350610aab83610a4b565b805f5b83811015610adb578151610ac28882610a69565b9750610acd83610a80565b925050600181019050610aae565b5085935050505092915050565b5f6020820190508181035f830152610b008184610a8c565b905092915050565b610b1181610919565b82525050565b5f602082019050610b2a5f830184610b08565b92915050565b5f8160601b9050919050565b5f610b4682610b30565b9050919050565b5f610b5782610b3c565b9050919050565b610b6f610b6a826108b7565b610b4d565b82525050565b5f819050919050565b610b8f610b8a82610867565b610b75565b82525050565b5f610ba08285610b5e565b601482019150610bb08284610b7e565b6020820191508190509392505050565b5f82825260208201905092915050565b7f4174206c6561737420302e3030312065746820746f20656e746572206c6f74745f8201527f6572790000000000000000000000000000000000000000000000000000000000602082015250565b5f610c2a602383610bc0565b9150610c3582610bd0565b604082019050919050565b5f6020820190508181035f830152610c5781610c1e565b9050919050565b7f4e487b71000000000000000000000000000000000000000000000000000000005f52601160045260245ffd5b5f610c9582610867565b9150610ca083610867565b9250828201905080821115610cb857610cb7610c5e565b5b92915050565b7f4e6f20706c617965727320696e20746865206c6f7474657279000000000000005f82015250565b5f610cf2601983610bc0565b9150610cfd82610cbe565b602082019050919050565b5f6020820190508181035f830152610d1f81610ce6565b9050919050565b7f4e487b71000000000000000000000000000000000000000000000000000000005f52601260045260245ffd5b5f610d5d82610867565b9150610d6883610867565b925082610d7857610d77610d26565b5b828206905092915050565b5f610d8d82610867565b9150610d9883610867565b9250828202610da681610867565b91508282048414831517610dbd57610dbc610c5e565b5b5092915050565b5f610dce82610867565b9150610dd983610867565b925082610de957610de8610d26565b5b828204905092915050565b7f4e487b71000000000000000000000000000000000000000000000000000000005f52603260045260245ffd5b5f610e2b82610867565b91507fffffffffffffffffffffffffffffffffffffffffffffffffffffffffffffffff8203610e5d57610e5c610c5e565b5b60018201905091905056fea2646970667358221220a901ec20db14aec9ae23ef73d59111f60796d2cfd282a3f6814d27eefe6d057864736f6c63430008140033",
  "linkReferences": {},
  "deployedLinkReferences": {}
}